:1000000037110020130101803715024013058501C7
:1000100083250500B753000093835383B3E5750030
:100020002320B500371502401305C50183250500BF
:10003000B7032000B3E575002320B5003715014054
:1000400083250500B7F3FFFF9383F300B3F5750035
:10005000B7130000938303DDB3E575002320B500DB
:10006000371501401305054083250500B70310F03F
:100070009383F3FFB3F57500B703B008B3E57500DC
:100080002320B500371501401305054083250500E1
:10009000B703F0FFB3F57500B79308009383838827
:1000A000B3E575002320B500371501401305C540A1
:1000B000832505009303F005B3E575002320B50003
:1000C00037450140130585808325050093031034CF
:1000D000B3E575002320B500374501401305C58001
:1000E00083250500B72300009383C300B3E57500A3
:1000F0002320B500371502401305050183250500AF
:10010000B7032000B3E575002320B50093C3F3FFC8
:10011000B3F575002320B500375500401305454061
:1001200083150500930300FCB3F57500930380006D
:10013000B3E575002310B500375500401305C541E0
:1001400083150500B7F3FFFFB3F575009303800235
:10015000B3E575002310B500375500401305054081
:100160008315050093031000B3E575002310B50057
:1001700037550040130505408315050093030040E3
:10018000B3E575002310B50017250000130535F7FA
:100190000304050063080400EF00407C130515000C
:1001A0006FF01FFFEF10003A130181FF2320310091
:1001B0002322B100B70500209385450293853500C1
:1001C0009301C00023803500938515009301000042
:1001D00023803500938515009301000023803500AE
:1001E000938515009301000023803500832541008D
:1001F0008321010013018100EF10003AEF00406BF2
:10020000EF00006BEF00C06AEF10C033130181FFF5
:10021000232031002322B100B70500209385450239
:100220009385350093019000238035009385150058
:100230009301000023803500938515009301000091
:10024000238035009385150093012000238035001D
:10025000832541008321010013018100EF10C03389
:10026000EF000065EF10002E130181FF2320310005
:100270002322B100B7050020938545029385350000
:1002800093016000238035009385150093010000E1
:1002900023803500938515009301000023803500ED
:1002A000938515009301400123803500832541008B
:1002B0008321010013018100EF10002EEF00405F49
:1002C000EF000015EF00401893078007EF00002EA5
:1002D00093070000EF00C01E97120000938242793E
:1002E0001303F00083C102009382120003C20200D4
:1002F0009382120093870100EF00801C1303F3FF29
:10030000630A030093070200EF00801B1303F3FF4F
:10031000E31A03FCEF008022EF00C025EF00805EAF
:10032000EF00807D17260000130686D9EF005042AB
:10033000EF000058EF00C057EF00007C3717014076
:10034000130787408326070093F616006394060080
:10035000EF005043371701401307874083260700FB
:1003600093F6260063940600EF00800637170140DD
:10037000130787408326070093F646006394060020
:10038000EF104026EF00400C9307000DEF00002215
:1003900093070000EF00C012EF00D00FEF0090179E
:1003A000EF005030EF004070B70400209384440009
:1003B0009384740013028000EF0040791302F2FF6F
:1003C0009384F4FFE31A02FEEF00804E6FF01FF7F4
:1003D000EF108009EF00406DB704002093844400C3
:1003E0001302B000EF0080761302F2FF9384140032
:1003F000E31A02FEEF00C04BEF00804BEF00404BD2
:10040000EF00004BEF00C04AEF00006F6FF01FF3EA
:10041000130141FF232011002322A1002324B10056
:1004200037550040130585418315050093F52500D8
:10043000E39805FE83258100032541008320010008
:100440001301C100678000001301C1FE23201100C9
:100450002322C1002324B1002326A10023287100F8
:1004600037550040130505408315050093E50550F9
:100470002310B5003755004013054541831505008D
:100480003755004013058541031605001316060174
:10049000B3E5C500B703030093831300B3F57500FC
:1004A000E39A75FC832301010325C10083258100A4
:1004B00003264100832001001301410167800000F1
:1004C000130141FF232011002322A1002324B100A6
:1004D00037550040130545418315050093F5050880
:1004E000E38805FE37550040130505412300F5005C
:1004F0008325810003254100832001001301C100F1
:1005000067800000130141FF232011002322A10076
:100510002324B1003755004013050540831505001D
:1005200093F5F5BF2310B500832581000325410015
:10053000832001001301C10067800000130141FF07
:10054000232011002322A1002324B10037550040AD
:10055000130545418315050093F50508E38805FE5D
:100560008325810003254100832001001301C10080
:1005700067800000130141FF232011002322A10006
:100580002324B100375500401305054083150500AD
:1005900093E505202310B500832581000325410044
:1005A000832001001301C100678000001301C1FE18
:1005B000232011002322A1002324B1002326C100FF
:1005C0002328710037550040130505412300F5002D
:1005D0003755004013054541831505003755004048
:1005E000130585410316050013160601B3E5C50082
:1005F000B703070093832308B3F57500E39A75FCEE
:10060000832301010326C1008325810003254100C6
:10061000832001001301410167800000130101FFE5
:10062000232011002322A1002324B1002326C1008E
:1006300037550040130545418315050037550040E7
:10064000130585410316050013160601B3E5C50021
:1006500037050020130545002320B5000326C100FF
:10066000832581000325410083200100130101013E
:1006700067800000130141FF232011002322A10005
:100680002324B1003755004013054541832505005B
:1006900093F54500E38805FE83258100032541008D
:1006A000832001001301C100678000001301C1FE17
:1006B000232011002322A1002324B100232661005E
:1006C0002328C1003703002013034300375500409F
:1006D0001305454183150500375500401305854135
:1006E0000316050013160601B3E5C500B7030300A2
:1006F00093832300B3F57500E39A75FC37550040EA
:100700001305454183150500375500401305854104
:1007100083150500EFF01FDFEFF0DFE537550040F0
:10072000130545418325050093F50504E38805FE7F
:100730003755004013050541830705002300F300EA
:10074000032601010323C100832581000325410005
:10075000832001001301410167800000130141FE65
:10076000232011002322A1002324B10023266100AD
:1007700023287100232A5100232CC1003755004043
:10078000130505412300F500375500401305454189
:1007900083150500375500401305854103160500F4
:1007A00013160601B3E5C500B703030093832300C6
:1007B000B3F57500E39A75FC3755004013054541C4
:1007C0008315050037550040130585418315050045
:1007D0009303200063FC5302375500401305454145
:1007E0008325050093F50504E38805FE3755004091
:1007F00013050541830705002300F30013031300CD
:100800009382F2FF63F453006FF01FFD37550040F1
:10081000130545418315050093F50504E38805FE9E
:100820003755004013050541830705002300F300F9
:1008300013031300EFF01FCDEFF0DFD33755004067
:10084000130545418315050093F50504E38805FE6E
:100850003755004013050541830705002300F300C9
:100860000326810183224101832301010323C10067
:100870008325810003254100832001001301C1016C
:1008800067800000130181FF2320110023226100F3
:1008900037B33201130353401303F3FFE31E03FE88
:1008A00003234100832001001301810067800000C1
:1008B000130181FF232011002322610037B31E00A2
:1008C0001303A3B91303F3FFE31E03FE0323410045
:1008D000832001001301810067800000130181FF64
:1008E00023201100232261001303A07D1303F3FFD3
:1008F000E31E03FE03234100832001001301810056
:1009000067800000130181FF232011002322610072
:1009100037530000130343E81303F3FFE31E03FE02
:100920000323410083200100130181006780000040
:10093000130181FF2320110023226100379301005E
:10094000130343891303F3FFE31E03FE0323410054
:10095000832001001301810067800000130101FF63
:1009600023201100232271002324A1002326B1009B
:1009700037450140130505808325050093F50508DB
:10098000E38E05FC930304003745014013054580C1
:1009900023007500374501401305058083250500B8
:1009A00093F50504E38805FE8325C1000325810036
:1009B00083234100832001001301010167800000AF
:1009C0001301C1FE232011002322A1002324D10002
:1009D0002326E100232881009386030093F6060F67
:1009E00093D6460013A7A600630A070093E6060302
:1009F00013840600EFF09FF66F00000193867603E4
:100A000013840600EFF09FF59386030093F6F6003B
:100A100013A7A600630A070093E6060313840600E3
:100A2000EFF0DFF36F000001938676031384060076
:100A3000EFF0DFF2032401010327C10083268100C8
:100A4000032541008320010013014101678000005C
:100A50001301C1FF23201100EFF09F9BEFF0DF9EF9
:100A600093078007EFF09FB493070000EFF05FA5B6
:100A70008320010013014100678000001301C1FFC2
:100A800023201100EFF0DF98EFF01F9C9307800701
:100A9000EFF0DFB193070004EFF09FA28320010085
:100AA00013014100678000001301C1FF23201100E2
:100AB000EFF01FFA93072002EFF09FA093070000CA
:100AC000EFF01FA093073000EFF09F9F93071002F5
:100AD000EFF01F9F93070000EFF09F9E9307F00732
:100AE000EFF01F9EEFF09FA5EFF0DFA8832001003D
:100AF00013014100678000001301C1FF2320110092
:100B000093034000EFF0DF90EFF01F94930780070E
:100B1000EFF0DFA993070004EFF09F9A930100081C
:100B200093F70700EFF0DF999381F1FFE39A01FE5D
:100B30009383F3FFE39403FEEFF05FA0EFF09FA336
:100B4000832001001301410067800000130101FFB1
:100B5000232011002322C1002324D1002326610079
:100B600017160000130606F283C6040013030002E2
:100B7000638866001306060113031300E39C66FEF8
:100B8000EFF01F89EFF05F8C93078007EFF01FA253
:100B900093070004EFF0DF9293010001EF004002A1
:100BA000EFF0DF99EFF01F9D0323C1008326810042
:100BB000032641008320010013010101678000002A
:100BC0001301C1FF23201100834306001306160002
:100BD000EF0000039387030093F7F70FEFF05F8EAA
:100BE0009387030093D78700EFF09F8D9381F1FFE8
:100BF000E39C01FC83200100130141006780000099
:100C00001301C1FE23283100232641002324610063
:100C1000232251002320110013720200930180004F
:100C20003383030093720308639A020213122200B3
:100C3000131313009381F1FFE39601FE9303020067
:100C40008320010083224100032381000322C1008D
:100C5000832101011301410167800000131222006A
:100C60009302300033625200131313009381F1FF9B
:100C7000E39A01FA930302008320010083224100DA
:100C8000032381000322C1008321010113014101DB
:100C9000678000001301C1FF2320110037030020EB
:100CA00013034300EFF04FFA9307100D9302700007
:100CB000EFF0DFAA832001001301410067800000EC
:100CC0001301C1FF23201100EFF08FF4EFF0CFF7F5
:100CD0009307000DEFF09F8D93870500EFF04FFE17
:100CE0003706002013064600130616008347060049
:100CF000EFF00FFD1306F6FF83470600EFF04FFC01
:100D0000EFF0DF83EFF01F87832001001301410024
:100D100067800000130101FF232011002322C1007E
:100D2000232431002326D100370600201306460075
:100D30008301060093F1F10093E10103B70600205F
:100D400093864601238036008301060093F1010F4C
:100D500093D1410093E1010393861600238036006E
:100D600093861600130616008301060093F1F10026
:100D700093E10103238036008301060093F1010F04
:100D800093D1410093E1010393861600238036003E
:100D900093861600130616008301060093F1F100F6
:100DA00093E10103238036008301060093F10103E0
:100DB00093D1410093E1010393861600238036000E
:100DC00093861600130616008301060093F1710046
:100DD000B3813100971200009382C229B38232009E
:100DE00083810200238036009382120093861600CE
:100DF00083810200238036009386160013061600B6
:100E00008301060093F1010F93D1410093E10103A7
:100E1000238036008301060093F1F10093E1010382
:100E2000938616002380360093861600130616005C
:100E30008301060093F1010293D1410093E1010384
:100E4000238036008301060093F1F10093E1010352
:100E5000938616002380360093861600130616002C
:100E60008301060093F1010F93D1410093E1010347
:100E7000238036008301060093F1F10093E1010322
:100E80009386160023803600938616008326C100C1
:100E90008321810003264100832001001301010109
:100EA00067800000130101FF23201100232241006D
:100EB0002324C1002326D100370600201306460153
:100EC000B7060020938646000302060023804600F2
:100ED00013061600938616000302060023804600C0
:100EE000938616001302A003238046001306160003
:100EF00093861600030206002380460013061600A0
:100F0000938616000302060023804600938616008F
:100F10001302A003238046001306160093861600D2
:100F2000030206002380460013061600938616006F
:100F300003020600238046008326C10003268100A9
:100F4000032241008320010013010101678000009A
:100F50001301C1FF2320110083010600638E0100ED
:100F6000B70400209384440023803400EFF01FBEB8
:100F7000130616006FF05FFE83200100130141008D
:100F8000678000001301C1FF2320110093010000BE
:100F9000B70400209384440123803400EFF0DFB5D0
:100FA000EFF09FB01716000013060613EFF05FFA7C
:100FB000EFF01F90EFF0DF8FEFF01FB4EFF0DFAE38
:100FC0001302B003171600001306C60BB704002067
:100FD00093844400EFF05FAD8301060093F1010FAD
:100FE00093D1410093E1010323803400EFF01FB659
:100FF0008301060093F1F10093E1010323803400A3
:10100000EFF0DFB4EFF0DF8A130616001302F2FFF1
:1010100037170140130787408326070093F68600A1
:1010200063820602371701401307874083260700B3
:1010300093F60601638406006FF09FFDE30202F859
:101040006FF05FF91306F6FF83010600B704002076
:10105000938444019384140023803400EFF0DFA9CB
:10106000EFF09FA41716000013066606EFF05FEE80
:10107000EFF01F84EFF0DF83EFF01FA8EFF0DFA2A7
:1010800013028001171600001306C6FFB7040020E4
:1010900093844400EFF05FA18301060093F1010FF8
:1010A00093D1410093E1010323803400EFF01FAAA4
:1010B0008301060093F1F10093E1010323803400E2
:1010C000EFF0DFA8EFF0CFFE130616001302F2FFD9
:1010D00037170140130787408326070093F68600E1
:1010E00063820602371701401307874083260700F3
:1010F00093F60604638406006FF09FFDE30202F896
:101100006FF05FF91306F6FF83010600B7040020B5
:10111000938444019384240023803400EFF0DF9D06
:10112000EFF09F9817160000130696FBEFF05FE2B2
:10113000EFF00FF8EFF0CFF7EFF01F9CEFF0DF9636
:1011400013027000171600001306C6F3B704002040
:1011500093844400EFF05F958301060093F1010F43
:1011600093D1410093E1010323803400EFF01F9EEF
:101170008301060093F1F10093E101032380340021
:10118000EFF0DF9CEFF0CFF2130616001302F2FF30
:1011900037170140130787408326070093F6860020
:1011A0006382060237170140130787408326070032
:1011B00093F60604638406006FF09FFDE30202F8D5
:1011C0006FF05FF91306F6FF83010600B7040020F5
:1011D000938444019384340023803400EFF0DF9142
:1011E000EFF09F8C17160000130676F1EFF05FD634
:1011F000EFF00FECEFF0CFEBEFF01F90EFF0DF8AA6
:101200001302F001171600001306C6E7B70400200A
:1012100093844400EFF05F898301060093F1010F8E
:1012200093D1410093E1010323803400EFF01F923A
:101230008301060093F1F10093E101032380340060
:10124000EFF0DF90EFF0CFE6130616001302F2FF87
:1012500037170140130787408326070093F686005F
:101260006382060237170140130787408326070071
:1012700093F60604638406006FF09FFDE30202F814
:101280006FF05FF91306F6FF83010600B704002034
:10129000938444019384440023803400EFF0DF857D
:1012A000EFF09F8017160000130626E4EFF05FCAE8
:1012B000EFF00FE0EFF0CFDFEFF01F84EFF0CFFEA5
:1012C0001302C000171600001306C6DBB704002087
:1012D00093844400EFF04FFD8301060093F1010F6A
:1012E00093D1410093E1010323803400EFF01F8686
:1012F0008301060093F1F10093E1010323803400A0
:10130000EFF0DF84EFF0CFDA130616001302F2FFDE
:1013100037170140130787408326070093F686009E
:1013200063820602371701401307874083260700B0
:1013300093F60604638406006FF09FFDE30202F853
:101340006FF05FF91306F6FF83010600B704002073
:10135000938444019384540023803400EFF0CFF948
:10136000EFF08FF4171600001306D6D8EFF05FBE2B
:10137000EFF00FD4EFF0CFD3EFF00FF8EFF0CFF2A4
:1013800013023006171600001306C6CFB70400205C
:1013900093844400EFF04FF18301060093F1010FB5
:1013A00093D1410093E1010323803400EFF00FFA61
:1013B0008301060093F1F10093E1010323803400DF
:1013C000EFF0CFF8EFF0CFCE130616001302F2FFC6
:1013D00037170140130787408326070093F68600DE
:1013E00063820602371701401307874083260700F0
:1013F00093F60604638406006FF09FFDE30202F893
:101400006FF05FF91306F6FF83010600B7040020B2
:10141000938444019384640023803400EFE05FFFF1
:10142000EFF08F829307000DEFF04F9893070000C5
:10143000EFF00F8937060020130646019301700074
:1014400083070600EFF0CF87130616009381F1FFA4
:10145000E39801FEEFF08F8EEFF0CF918320010033
:101460001301410067800000130101FF23201100D8
:10147000232241002324C1002326D1003706002067
:101480001306460113066600B70600209386460041
:1014900003020600238046001306160093861600FA
:1014A0000302060023804600938616001302000202
:1014B00023804600130616009386160003020600DA
:1014C00023804600130616009386160003020600CA
:1014D00023804600938616001302D0022380460024
:1014E00013061600938616000302060023804600AA
:1014F000130616009386160003020600238046009A
:10150000938616001302D0022380460013061600AD
:101510009386160003020600238046001306160079
:101520009386160003020600238046008326C1002E
:1015300003268100032241008320010013010101E1
:1015400067800000130101FF2320110023223100D6
:101550002324B1002326C1003706002013064602CB
:1015600097150000938505BB83A105002320360055
:10157000938545001306460083A10500232036000D
:101580000326C100832581008321410083200100BF
:101590001301010167800000130101FF23201100E6
:1015A000232281002324B1002326310093018000EF
:1015B000B70500209385450203840500EFF00FBABC
:1015C000938515009381F1FFE39801FE8321C1000B
:1015D00083258100032441008320010013010101C0
:1015E00067800000130181FE232011002322B10037
:1015F000232461002326510023284100232A31009F
:10160000EFE09FE49307000DEFE05FFA930700001F
:10161000EFE01FEBEFF00FE8EFF0DFF2130181FFD7
:10162000232031002322B100B70500209385450215
:10163000938535009301F0002380350093851500D4
:10164000930100002380350093851500930110005D
:101650002380350093851500930100002380350019
:10166000832541008321010013018100EFF0DFF2A7
:10167000EFF00FA4B7050020938545009385250062
:101680008381050093F1010F93D141001302A00063
:1016900093820100B38151001302F2FFE31C02FEAA
:1016A000138301008381050093F1F10033033300BC
:1016B000EFF05FE9130181FF232031002322B10005
:1016C000B705002093854502938535009301F0000E
:1016D0002380350093851500930100002380350099
:1016E0009385150093012000238035009385150014
:1016F00093010300238035008325410083210100ED
:1017000013018100EFF05FE9EFF08F9AB705002039
:1017100093854500938515008381050093F1010FA2
:1017200093D141001302A00093820100B3815100C4
:101730001302F2FFE31C02FE138301008381050004
:1017400093F1F10033033300EFF0DFDF130181FF8A
:10175000232031002322B100B705002093854502E4
:10176000938535009301F0002380350093851500A3
:10177000930100002380350093851500930130000C
:1017800023803500938515009301030023803500E5
:10179000832541008321010013018100EFF0DFDF89
:1017A000EFF00F91EFF01FDA130181FF23203100DA
:1017B0002322B100B70500209385450293853500AB
:1017C0009301F000238035009385150093010000FC
:1017D0002380350093851500930140002380350058
:1017E0009385150093010000238035008325410077
:1017F0008321010013018100EFF01FDAEFF04F8B1E
:10180000B705002093854500938535008381050049
:1018100093F1F10013830100EFF0DFD2130181FF98
:10182000232031002322B100B70500209385450213
:10183000938535009301F0002380350093851500D2
:10184000930100002380350093851500930150001B
:101850002380350093851500930103002380350014
:10186000832541008321010013018100EFF0DFD2C5
:10187000EFF00F84B7050020938545009385150090
:101880008381050093F1010F93D141001302A00061
:1018900093820100B38151001302F2FFE31C02FEA8
:1018A000138301008381050093F1F10033033300BA
:1018B000EFF05FC9130181FF232031002322B10023
:1018C000B705002093854502938535009301F0000C
:1018D0002380350093851500930100002380350097
:1018E00093851500930160002380350093851500D2
:1018F00093010300238035008325410083210100EB
:1019000013018100EFF05FC9EFE09FFAB7050020F7
:1019100093854500938515008381050093F1010FA0
:1019200093D141001302A00093820100B3815100C2
:101930001302F2FFE31C02FE138301008381050002
:1019400093F1F10033033300EFF0DFBF130181FFA8
:10195000232031002322B100B705002093854502E2
:10196000938535009301F0002380350093851500A1
:1019700093010000238035009385150093017000CA
:1019800023803500938515009301030023803500E3
:10199000832541008321010013018100EFF0DFBFA7
:1019A000EFE01FF1B70500209385450093851500F2
:1019B0008381050093F1010F93D141001302A00030
:1019C00093820100B38151001302F2FFE31C02FE77
:1019D000138301008381050093F1F1003303330089
:1019E000EFF05FB6130181FF232031002322B10005
:1019F000B705002093854502938535009301F000DB
:101A00002380350093851500930100002380350065
:101A10009385150093018000238035009385150080
:101A200093010300238035008325410083210100B9
:101A300013018100EFF05FB6EFE09FE783214101E2
:101A4000032201018322C100032381008325410079
:0C1A500083200100130181016780000069
:101A6000C10300000A00880F00004202A81F2001E5
:101A700021007F220003DA028D14AF000000000075
:101A80000000000000000000000000000000000056
:101A9000000000330000000000000000F8003000EB
:101AA00000100000100C00000C06000006000000F2
:101AB00040C00004C07804047840043F40003F0464
:101AC000000800FF7030002088001E18FC00210074
:101AD000F0E0000308181E1CF000212100001E0089
:101AE00000701024F0002123080027218800191E0F
:101AF000100016000E0000000000000000000000B2
:101B0000000000000000E007181804200240000058
:101B10000000024004201818E00700000000000048
:101B2000400240028001F00F8001400240020000AC
:101B3000000100010001F01F000100010001000090
:101B4000008000B0007000000000000000000000F5
:101B5000000000010001000100010001000100017E
:101B60000000003000300000000000000000000015
:101B700000000060001800068001600018000400EA
:101B80000000E00F1010082008201010E00F0000E7
:101B9000000010201020F83F00200020000000006E
:101BA00000007030082808240822882170300000C6
:101BB000000030180820882088204811300E0000CE
:101BC00000000007C00420241024F83F0024000077
:101BD0000000F8190821882088200811080E00004C
:101BE0000000E00F1011882088201811000E00005E
:101BF000000038000800083FC80038000800000056
:101C00000000701C8822082108218822701C000016
:101C10000000E0001031082208221011E00F00003F
:101C2000000000000000C030C030000000000000D4
:101C30000000000000808060000000000000000044
:101C4000000000018002400420081010082000005D
:101C500040044004400440044004400440040000A8
:101C6000000008201010200840048002000100003D
:101C7000000070004800083008360801F00000003D
:101C8000C0073018C8272824E8231014E00B0000F0
:101C90000020003CC0233802E0020027003800206A
:101CA0000820F83F8820882088207011000E00004E
:101CB000C007301808200820082008103808000045
:101CC0000820F83F0820082008201010E00F00002E
:101CD0000820F83F88208820E823082010180000FA
:101CE0000820F83F88208800E80308001000000062
:101CF000C0073018082008200822381E0002000003
:101D00000820F83F0821000100010821F83F0820C1
:101D1000000008200820F83F0820082000000000EC
:101D200000C0008008800880F87F080008000000DC
:101D30000820F83F8820C001282618380820000015
:101D40000820F83F0820002000200020003000007C
:101D50000820F83FF800003FF800F83F0820000096
:101D60000820F83F3020C00000070818F83F08009E
:101D7000E00F10100820082008201010E00F0000CD
:101D80000820F83F0821080108010801F0000000C0
:101D9000E00F10180824082408381050E04F000005
:101DA0000820F83F882088008803880C70300020C5
:101DB000000070388820082108210822381C000003
:101DC000180008000820F83F08200800180000004C
:101DD0000800F81F0820002000200820F81F080035
:101DE0000800780088070038000EC8013800080095
:101DF000F803083C0007F8000007083CF80300005F
:101E000008201830682C80038003682C18300820C4
:101E100008003800C820003FC82038000800000033
:101E20001020083808260821C8203820081800008B
:101E3000000000000000FE7F02400240024000005F
:101E400000000C003000C0010006003800C0000097
:101E50000000024002400240FE7F0000000000003F
:101E60000000000004000200020002000400000064
:101E70000080008000800080008000800080008062
:101E8000000002000200040000000000000000004A
:101E9000000000198024802280228022003F002040
:101EA0000800F83F0011802080200011000E000083
:101EB0000000000E00118020802080200011000012
:101EC0000000000E0011802080208810F83F0020C4
:101ED0000000001F80228022802280220013000048
:101EE000000080208020F03F882088208800180093
:101EF0000000006B80948094809480938060000048
:101F00000820F83F0021800080008020003F002052
:101F1000000080209820983F002000200000000052
:101F2000000000C0008080809880987F0000000042
:101F30000820F83F00240002802D8030802000001F
:101F4000000008200820F83F0020002000000000CA
:101F50008020803F80208000803F80208000003FE4
:101F60008020803F0021800080008020003F0020F2
:101F70000000001F8020802080208020001F0000A3
:101F8000808080FF00A1802080200011000E0000D2
:101F90000000000E00118020802080A080FF0080C3
:101FA00080208020803F0021802080008001000070
:101FB00000000033802480248024802480190000C5
:101FC000000080008000E01F8020802000000000D2
:101FD0008000801F0020002000208010803F002013
:101FE00080008001800E00300008800680018000A3
:101FF000800F8030000C8003000C8030800F800048
:10200000000080208031002E800E80318020000072
:1020100080808081808E00700018800680018000A2
:10202000000080218030802C8022802180300000C0
:10203000000000000000000080007C3F02400240E1
:102040000000000000000000FFFF00000000000092
:102050000000024002407C3F8000000000000000C1
:10206000000006000100010002000200040004005C
:1020700000004D6F5475576554684672536153752F
:1020800000010203040506070809101112131415B4
:102090001617181920212223242526272829303114
:1020A0003233343536373839404142434445464768
:1020B00048495051525354555657585948656C6CBD
:1020C0006F2C20576F726C64210061646A20686F06
:1020D0007572200061646A206D696E200061646A17
:1020E00020646179200061646A206D6F6E746820DD
:1020F0000061646A2079656172200061646A20640D
:102100006174652000000000000000000000000075
:082110007EFF0600000000EF55
:00000001FF
